{
  "_format": "hh-sol-artifact-1",
  "contractName": "CourseList",
  "sourceName": "contracts/CourseList.sol",
  "abi": [
    {
      "inputs": [],
      "stateMutability": "nonpayable",
      "type": "constructor"
    },
    {
      "inputs": [],
      "name": "ceo",
      "outputs": [
        {
          "internalType": "address",
          "name": "",
          "type": "address"
        }
      ],
      "stateMutability": "view",
      "type": "function"
    },
    {
      "inputs": [
        {
          "internalType": "uint256",
          "name": "",
          "type": "uint256"
        }
      ],
      "name": "courseList",
      "outputs": [
        {
          "internalType": "contract Course",
          "name": "",
          "type": "address"
        }
      ],
      "stateMutability": "view",
      "type": "function"
    },
    {
      "inputs": [
        {
          "internalType": "string",
          "name": "_name",
          "type": "string"
        },
        {
          "internalType": "string",
          "name": "_desc",
          "type": "string"
        },
        {
          "internalType": "uint256",
          "name": "_target",
          "type": "uint256"
        },
        {
          "internalType": "uint256",
          "name": "_fundingPrice",
          "type": "uint256"
        },
        {
          "internalType": "uint256",
          "name": "_price",
          "type": "uint256"
        },
        {
          "internalType": "string",
          "name": "_img",
          "type": "string"
        }
      ],
      "name": "createCourse",
      "outputs": [],
      "stateMutability": "nonpayable",
      "type": "function"
    },
    {
      "inputs": [],
      "name": "getCourseList",
      "outputs": [
        {
          "internalType": "contract Course[]",
          "name": "",
          "type": "address[]"
        }
      ],
      "stateMutability": "view",
      "type": "function"
    },
    {
      "inputs": [],
      "name": "isCeo",
      "outputs": [
        {
          "internalType": "bool",
          "name": "",
          "type": "bool"
        }
      ],
      "stateMutability": "view",
      "type": "function"
    },
    {
      "inputs": [
        {
          "internalType": "uint256",
          "name": "_index",
          "type": "uint256"
        }
      ],
      "name": "removeCourse",
      "outputs": [],
      "stateMutability": "nonpayable",
      "type": "function"
    }
  ],
  "bytecode": "0x6080604052348015600f57600080fd5b50336000806101000a81548173ffffffffffffffffffffffffffffffffffffffff021916908373ffffffffffffffffffffffffffffffffffffffff1602179055506128138061005f6000396000f3fe608060405234801561001057600080fd5b50600436106100625760003560e01c8063207413831461006757806360a0bdda14610083578063908921fc146100b3578063c8231ed3146100d1578063d54064a8146100ef578063df3addfa1461010d575b600080fd5b610081600480360381019061007c9190610666565b610129565b005b61009d60048036038101906100989190610747565b6101fc565b6040516100aa91906107f3565b60405180910390f35b6100bb61023b565b6040516100c8919061082f565b60405180910390f35b6100d961025f565b6040516100e69190610865565b60405180910390f35b6100f76102b6565b604051610104919061093e565b60405180910390f35b61012760048036038101906101229190610747565b610344565b005b60008060009054906101000a900473ffffffffffffffffffffffffffffffffffffffff1633888888888888604051610160906104c9565b6101719897969594939291906109ee565b604051809103906000f08015801561018d573d6000803e3d6000fd5b5090506001819080600181540180825580915050600190039060005260206000200160009091909190916101000a81548173ffffffffffffffffffffffffffffffffffffffff021916908373ffffffffffffffffffffffffffffffffffffffff16021790555050505050505050565b6001818154811061020c57600080fd5b906000526020600020016000915054906101000a900473ffffffffffffffffffffffffffffffffffffffff1681565b60008054906101000a900473ffffffffffffffffffffffffffffffffffffffff1681565b60008060009054906101000a900473ffffffffffffffffffffffffffffffffffffffff1673ffffffffffffffffffffffffffffffffffffffff163373ffffffffffffffffffffffffffffffffffffffff1614905090565b6060600180548060200260200160405190810160405280929190818152602001828054801561033a57602002820191906000526020600020905b8160009054906101000a900473ffffffffffffffffffffffffffffffffffffffff1673ffffffffffffffffffffffffffffffffffffffff16815260200190600101908083116102f0575b5050505050905090565b60008054906101000a900473ffffffffffffffffffffffffffffffffffffffff1673ffffffffffffffffffffffffffffffffffffffff163373ffffffffffffffffffffffffffffffffffffffff161461039c57600080fd5b60018054905081146103ad57600080fd5b60008190505b600180805490506103c49190610ab0565b81101561047e57600180826103d99190610ae4565b815481106103ea576103e9610b18565b5b9060005260206000200160009054906101000a900473ffffffffffffffffffffffffffffffffffffffff166001828154811061042957610428610b18565b5b9060005260206000200160006101000a81548173ffffffffffffffffffffffffffffffffffffffff021916908373ffffffffffffffffffffffffffffffffffffffff16021790555080806001019150506103b3565b50600180548061049157610490610b47565b5b6001900381819060005260206000200160006101000a81549073ffffffffffffffffffffffffffffffffffffffff0219169055905550565b611c6780610b7783390190565b6000604051905090565b600080fd5b600080fd5b600080fd5b600080fd5b6000601f19601f8301169050919050565b7f4e487b7100000000000000000000000000000000000000000000000000000000600052604160045260246000fd5b61053d826104f4565b810181811067ffffffffffffffff8211171561055c5761055b610505565b5b80604052505050565b600061056f6104d6565b905061057b8282610534565b919050565b600067ffffffffffffffff82111561059b5761059a610505565b5b6105a4826104f4565b9050602081019050919050565b82818337600083830152505050565b60006105d36105ce84610580565b610565565b9050828152602081018484840111156105ef576105ee6104ef565b5b6105fa8482856105b1565b509392505050565b600082601f830112610617576106166104ea565b5b81356106278482602086016105c0565b91505092915050565b6000819050919050565b61064381610630565b811461064e57600080fd5b50565b6000813590506106608161063a565b92915050565b60008060008060008060c08789031215610683576106826104e0565b5b600087013567ffffffffffffffff8111156106a1576106a06104e5565b5b6106ad89828a01610602565b965050602087013567ffffffffffffffff8111156106ce576106cd6104e5565b5b6106da89828a01610602565b95505060406106eb89828a01610651565b94505060606106fc89828a01610651565b935050608061070d89828a01610651565b92505060a087013567ffffffffffffffff81111561072e5761072d6104e5565b5b61073a89828a01610602565b9150509295509295509295565b60006020828403121561075d5761075c6104e0565b5b600061076b84828501610651565b91505092915050565b600073ffffffffffffffffffffffffffffffffffffffff82169050919050565b6000819050919050565b60006107b96107b46107af84610774565b610794565b610774565b9050919050565b60006107cb8261079e565b9050919050565b60006107dd826107c0565b9050919050565b6107ed816107d2565b82525050565b600060208201905061080860008301846107e4565b92915050565b600061081982610774565b9050919050565b6108298161080e565b82525050565b60006020820190506108446000830184610820565b92915050565b60008115159050919050565b61085f8161084a565b82525050565b600060208201905061087a6000830184610856565b92915050565b600081519050919050565b600082825260208201905092915050565b6000819050602082019050919050565b6108b5816107d2565b82525050565b60006108c783836108ac565b60208301905092915050565b6000602082019050919050565b60006108eb82610880565b6108f5818561088b565b93506109008361089c565b8060005b8381101561093157815161091888826108bb565b9750610923836108d3565b925050600181019050610904565b5085935050505092915050565b6000602082019050818103600083015261095881846108e0565b905092915050565b600081519050919050565b600082825260208201905092915050565b60005b8381101561099a57808201518184015260208101905061097f565b60008484015250505050565b60006109b182610960565b6109bb818561096b565b93506109cb81856020860161097c565b6109d4816104f4565b840191505092915050565b6109e881610630565b82525050565b600061010082019050610a04600083018b610820565b610a11602083018a610820565b8181036040830152610a2381896109a6565b90508181036060830152610a3781886109a6565b9050610a4660808301876109df565b610a5360a08301866109df565b610a6060c08301856109df565b81810360e0830152610a7281846109a6565b90509998505050505050505050565b7f4e487b7100000000000000000000000000000000000000000000000000000000600052601160045260246000fd5b6000610abb82610630565b9150610ac683610630565b9250828203905081811115610ade57610add610a81565b5b92915050565b6000610aef82610630565b9150610afa83610630565b9250828201905080821115610b1257610b11610a81565b5b92915050565b7f4e487b7100000000000000000000000000000000000000000000000000000000600052603260045260246000fd5b7f4e487b7100000000000000000000000000000000000000000000000000000000600052603160045260246000fdfe608060405234801561001057600080fd5b50604051611c67380380611c6783398181016040528101906100329190610350565b876000806101000a81548173ffffffffffffffffffffffffffffffffffffffff021916908373ffffffffffffffffffffffffffffffffffffffff16021790555086600160006101000a81548173ffffffffffffffffffffffffffffffffffffffff021916908373ffffffffffffffffffffffffffffffffffffffff16021790555085600290816100c29190610671565b5084600390816100d29190610671565b5083600481905550826005819055508160068190555080600790816100f79190610671565b5060405180602001604052806000815250600890816101169190610671565b506000600960006101000a81548160ff0219169083151502179055506000600a819055505050505050505050610743565b6000604051905090565b600080fd5b600080fd5b600073ffffffffffffffffffffffffffffffffffffffff82169050919050565b60006101868261015b565b9050919050565b6101968161017b565b81146101a157600080fd5b50565b6000815190506101b38161018d565b92915050565b600080fd5b600080fd5b6000601f19601f8301169050919050565b7f4e487b7100000000000000000000000000000000000000000000000000000000600052604160045260246000fd5b61020c826101c3565b810181811067ffffffffffffffff8211171561022b5761022a6101d4565b5b80604052505050565b600061023e610147565b905061024a8282610203565b919050565b600067ffffffffffffffff82111561026a576102696101d4565b5b610273826101c3565b9050602081019050919050565b60005b8381101561029e578082015181840152602081019050610283565b60008484015250505050565b60006102bd6102b88461024f565b610234565b9050828152602081018484840111156102d9576102d86101be565b5b6102e4848285610280565b509392505050565b600082601f830112610301576103006101b9565b5b81516103118482602086016102aa565b91505092915050565b6000819050919050565b61032d8161031a565b811461033857600080fd5b50565b60008151905061034a81610324565b92915050565b600080600080600080600080610100898b03121561037157610370610151565b5b600061037f8b828c016101a4565b98505060206103908b828c016101a4565b975050604089015167ffffffffffffffff8111156103b1576103b0610156565b5b6103bd8b828c016102ec565b965050606089015167ffffffffffffffff8111156103de576103dd610156565b5b6103ea8b828c016102ec565b95505060806103fb8b828c0161033b565b94505060a061040c8b828c0161033b565b93505060c061041d8b828c0161033b565b92505060e089015167ffffffffffffffff81111561043e5761043d610156565b5b61044a8b828c016102ec565b9150509295985092959890939650565b600081519050919050565b7f4e487b7100000000000000000000000000000000000000000000000000000000600052602260045260246000fd5b600060028204905060018216806104ac57607f821691505b6020821081036104bf576104be610465565b5b50919050565b60008190508160005260206000209050919050565b60006020601f8301049050919050565b600082821b905092915050565b6000600883026105277fffffffffffffffffffffffffffffffffffffffffffffffffffffffffffffffff826104ea565b61053186836104ea565b95508019841693508086168417925050509392505050565b6000819050919050565b600061056e6105696105648461031a565b610549565b61031a565b9050919050565b6000819050919050565b61058883610553565b61059c61059482610575565b8484546104f7565b825550505050565b600090565b6105b16105a4565b6105bc81848461057f565b505050565b5b818110156105e0576105d56000826105a9565b6001810190506105c2565b5050565b601f821115610625576105f6816104c5565b6105ff846104da565b8101602085101561060e578190505b61062261061a856104da565b8301826105c1565b50505b505050565b600082821c905092915050565b60006106486000198460080261062a565b1980831691505092915050565b60006106618383610637565b9150826002028217905092915050565b61067a8261045a565b67ffffffffffffffff811115610693576106926101d4565b5b61069d8254610494565b6106a88282856105e4565b600060209050601f8311600181146106db57600084156106c9578287015190505b6106d38582610655565b86555061073b565b601f1984166106e9866104c5565b60005b82811015610711578489015182556001820191506020850194506020810190506106ec565b8683101561072e578489015161072a601f891682610637565b8355505b6001600288020188555050505b505050505050565b611515806107526000396000f3fe6080604052600436106100e85760003560e01c8063664ab18e1161008a578063a035b1fe11610059578063a035b1fe146102e1578063a6f2ae3a1461030c578063cd0a496314610316578063d4b839921461033f576100e8565b8063664ab18e146102235780638da5cb5b1461024e578063908921fc1461027957806397a993aa146102a4576100e8565b806333938bb7116100c657806333938bb71461016e578063426bfd001461019957806355f150f1146101c45780635b2a4cff146101ef576100e8565b806306661abd146100ed57806306fdde031461011857806311b0061714610143575b600080fd5b3480156100f957600080fd5b5061010261036a565b60405161010f9190610cb4565b60405180910390f35b34801561012457600080fd5b5061012d610370565b60405161013a9190610d5f565b60405180910390f35b34801561014f57600080fd5b506101586103fe565b6040516101659190610d5f565b60405180910390f35b34801561017a57600080fd5b5061018361048c565b6040516101909190610cb4565b60405180910390f35b3480156101a557600080fd5b506101ae610492565b6040516101bb9190610d5f565b60405180910390f35b3480156101d057600080fd5b506101d9610520565b6040516101e69190610d5f565b60405180910390f35b3480156101fb57600080fd5b506102046105ae565b60405161021a9a99989796959493929190610d9c565b60405180910390f35b34801561022f57600080fd5b506102386108ea565b6040516102459190610e54565b60405180910390f35b34801561025a57600080fd5b506102636108fd565b6040516102709190610eb0565b60405180910390f35b34801561028557600080fd5b5061028e610923565b60405161029b9190610eb0565b60405180910390f35b3480156102b057600080fd5b506102cb60048036038101906102c69190610f1d565b610947565b6040516102d89190610cb4565b60405180910390f35b3480156102ed57600080fd5b506102f661095f565b6040516103039190610cb4565b60405180910390f35b610314610965565b005b34801561032257600080fd5b5061033d6004803603810190610338919061107f565b610c08565b005b34801561034b57600080fd5b50610354610c95565b6040516103619190610cb4565b60405180910390f35b600a5481565b6002805461037d906110f7565b80601f01602080910402602001604051908101604052809291908181526020018280546103a9906110f7565b80156103f65780601f106103cb576101008083540402835291602001916103f6565b820191906000526020600020905b8154815290600101906020018083116103d957829003601f168201915b505050505081565b6008805461040b906110f7565b80601f0160208091040260200160405190810160405280929190818152602001828054610437906110f7565b80156104845780601f1061045957610100808354040283529160200191610484565b820191906000526020600020905b81548152906001019060200180831161046757829003601f168201915b505050505081565b60055481565b6007805461049f906110f7565b80601f01602080910402602001604051908101604052809291908181526020018280546104cb906110f7565b80156105185780601f106104ed57610100808354040283529160200191610518565b820191906000526020600020905b8154815290600101906020018083116104fb57829003601f168201915b505050505081565b6003805461052d906110f7565b80601f0160208091040260200160405190810160405280929190818152602001828054610559906110f7565b80156105a65780601f1061057b576101008083540402835291602001916105a6565b820191906000526020600020905b81548152906001019060200180831161058957829003601f168201915b505050505081565b60608060008060006060806000806000803373ffffffffffffffffffffffffffffffffffffffff16600160009054906101000a900473ffffffffffffffffffffffffffffffffffffffff1673ffffffffffffffffffffffffffffffffffffffff160361061d5760009050610674565b6000600b60003373ffffffffffffffffffffffffffffffffffffffff1673ffffffffffffffffffffffffffffffffffffffff16815260200190815260200160002054111561066e5760019050610673565b600290505b5b6002600360045460055460065460076008600a54600960009054906101000a900460ff16898980546106a5906110f7565b80601f01602080910402602001604051908101604052809291908181526020018280546106d1906110f7565b801561071e5780601f106106f35761010080835404028352916020019161071e565b820191906000526020600020905b81548152906001019060200180831161070157829003601f168201915b50505050509950888054610731906110f7565b80601f016020809104026020016040519081016040528092919081815260200182805461075d906110f7565b80156107aa5780601f1061077f576101008083540402835291602001916107aa565b820191906000526020600020905b81548152906001019060200180831161078d57829003601f168201915b505050505098508480546107bd906110f7565b80601f01602080910402602001604051908101604052809291908181526020018280546107e9906110f7565b80156108365780601f1061080b57610100808354040283529160200191610836565b820191906000526020600020905b81548152906001019060200180831161081957829003601f168201915b50505050509450838054610849906110f7565b80601f0160208091040260200160405190810160405280929190818152602001828054610875906110f7565b80156108c25780601f10610897576101008083540402835291602001916108c2565b820191906000526020600020905b8154815290600101906020018083116108a557829003601f168201915b505050505093509a509a509a509a509a509a509a509a509a509a505090919293949596979899565b600960009054906101000a900460ff1681565b600160009054906101000a900473ffffffffffffffffffffffffffffffffffffffff1681565b60008054906101000a900473ffffffffffffffffffffffffffffffffffffffff1681565b600b6020528060005260406000206000915090505481565b60065481565b6000600b60003373ffffffffffffffffffffffffffffffffffffffff1673ffffffffffffffffffffffffffffffffffffffff16815260200190815260200160002054146109b157600080fd5b600960009054906101000a900460ff16156109d95734600654146109d457600080fd5b6109e8565b34600554146109e757600080fd5b5b34600b60003373ffffffffffffffffffffffffffffffffffffffff1673ffffffffffffffffffffffffffffffffffffffff168152602001908152602001600020819055506001600a6000828254610a3f9190611157565b92505081905550600554600a54610a56919061118b565b60045411610c0657600960009054906101000a900460ff1615610b7157600034905060008054906101000a900473ffffffffffffffffffffffffffffffffffffffff1673ffffffffffffffffffffffffffffffffffffffff166108fc600a83610abf91906111fc565b9081150290604051600060405180830381858888f19350505050158015610aea573d6000803e3d6000fd5b50600160009054906101000a900473ffffffffffffffffffffffffffffffffffffffff1673ffffffffffffffffffffffffffffffffffffffff166108fc600a83610b3491906111fc565b83610b3f919061122d565b9081150290604051600060405180830381858888f19350505050158015610b6a573d6000803e3d6000fd5b5050610c05565b6001600960006101000a81548160ff021916908315150217905550600160009054906101000a900473ffffffffffffffffffffffffffffffffffffffff1673ffffffffffffffffffffffffffffffffffffffff166108fc600554600a54610bd8919061118b565b9081150290604051600060405180830381858888f19350505050158015610c03573d6000803e3d6000fd5b505b5b565b600160009054906101000a900473ffffffffffffffffffffffffffffffffffffffff1673ffffffffffffffffffffffffffffffffffffffff163373ffffffffffffffffffffffffffffffffffffffff1614610c6257600080fd5b60011515600960009054906101000a900460ff16151514610c8257600080fd5b8060089081610c91919061140d565b5050565b60045481565b6000819050919050565b610cae81610c9b565b82525050565b6000602082019050610cc96000830184610ca5565b92915050565b600081519050919050565b600082825260208201905092915050565b60005b83811015610d09578082015181840152602081019050610cee565b60008484015250505050565b6000601f19601f8301169050919050565b6000610d3182610ccf565b610d3b8185610cda565b9350610d4b818560208601610ceb565b610d5481610d15565b840191505092915050565b60006020820190508181036000830152610d798184610d26565b905092915050565b60008115159050919050565b610d9681610d81565b82525050565b6000610140820190508181036000830152610db7818d610d26565b90508181036020830152610dcb818c610d26565b9050610dda604083018b610ca5565b610de7606083018a610ca5565b610df46080830189610ca5565b81810360a0830152610e068188610d26565b905081810360c0830152610e1a8187610d26565b9050610e2960e0830186610ca5565b610e37610100830185610d8d565b610e45610120830184610ca5565b9b9a5050505050505050505050565b6000602082019050610e696000830184610d8d565b92915050565b600073ffffffffffffffffffffffffffffffffffffffff82169050919050565b6000610e9a82610e6f565b9050919050565b610eaa81610e8f565b82525050565b6000602082019050610ec56000830184610ea1565b92915050565b6000604051905090565b600080fd5b600080fd5b6000610eea82610e6f565b9050919050565b610efa81610edf565b8114610f0557600080fd5b50565b600081359050610f1781610ef1565b92915050565b600060208284031215610f3357610f32610ed5565b5b6000610f4184828501610f08565b91505092915050565b600080fd5b600080fd5b7f4e487b7100000000000000000000000000000000000000000000000000000000600052604160045260246000fd5b610f8c82610d15565b810181811067ffffffffffffffff82111715610fab57610faa610f54565b5b80604052505050565b6000610fbe610ecb565b9050610fca8282610f83565b919050565b600067ffffffffffffffff821115610fea57610fe9610f54565b5b610ff382610d15565b9050602081019050919050565b82818337600083830152505050565b600061102261101d84610fcf565b610fb4565b90508281526020810184848401111561103e5761103d610f4f565b5b611049848285611000565b509392505050565b600082601f83011261106657611065610f4a565b5b813561107684826020860161100f565b91505092915050565b60006020828403121561109557611094610ed5565b5b600082013567ffffffffffffffff8111156110b3576110b2610eda565b5b6110bf84828501611051565b91505092915050565b7f4e487b7100000000000000000000000000000000000000000000000000000000600052602260045260246000fd5b6000600282049050600182168061110f57607f821691505b602082108103611122576111216110c8565b5b50919050565b7f4e487b7100000000000000000000000000000000000000000000000000000000600052601160045260246000fd5b600061116282610c9b565b915061116d83610c9b565b925082820190508082111561118557611184611128565b5b92915050565b600061119682610c9b565b91506111a183610c9b565b92508282026111af81610c9b565b915082820484148315176111c6576111c5611128565b5b5092915050565b7f4e487b7100000000000000000000000000000000000000000000000000000000600052601260045260246000fd5b600061120782610c9b565b915061121283610c9b565b925082611222576112216111cd565b5b828204905092915050565b600061123882610c9b565b915061124383610c9b565b925082820390508181111561125b5761125a611128565b5b92915050565b60008190508160005260206000209050919050565b60006020601f8301049050919050565b600082821b905092915050565b6000600883026112c37fffffffffffffffffffffffffffffffffffffffffffffffffffffffffffffffff82611286565b6112cd8683611286565b95508019841693508086168417925050509392505050565b6000819050919050565b600061130a61130561130084610c9b565b6112e5565b610c9b565b9050919050565b6000819050919050565b611324836112ef565b61133861133082611311565b848454611293565b825550505050565b600090565b61134d611340565b61135881848461131b565b505050565b5b8181101561137c57611371600082611345565b60018101905061135e565b5050565b601f8211156113c15761139281611261565b61139b84611276565b810160208510156113aa578190505b6113be6113b685611276565b83018261135d565b50505b505050565b600082821c905092915050565b60006113e4600019846008026113c6565b1980831691505092915050565b60006113fd83836113d3565b9150826002028217905092915050565b61141682610ccf565b67ffffffffffffffff81111561142f5761142e610f54565b5b61143982546110f7565b611444828285611380565b600060209050601f8311600181146114775760008415611465578287015190505b61146f85826113f1565b8655506114d7565b601f19841661148586611261565b60005b828110156114ad57848901518255600182019150602085019450602081019050611488565b868310156114ca57848901516114c6601f8916826113d3565b8355505b6001600288020188555050505b50505050505056fea26469706673582212201ff8da6c41a4f098e8c2d3660a40f4f7e59bcbfa495cb291b84e7b1cffc85b5f64736f6c634300081c0033a2646970667358221220173ddfdef0054453e1de687572ee188638a7d8a9b9626f674cdabe97c344324464736f6c634300081c0033",
  "linkReferences": {},
  "deployedLinkReferences": {}
}